{
  "_format": "hh-sol-artifact-1",
  "contractName": "Aggregator",
  "sourceName": "contracts/Aggregator.sol",
  "abi": [
    {
      "inputs": [
        {
          "internalType": "address[]",
          "name": "_routers",
          "type": "address[]"
        }
      ],
      "stateMutability": "nonpayable",
      "type": "constructor"
    },
    {
      "anonymous": false,
      "inputs": [
        {
          "indexed": true,
          "internalType": "address",
          "name": "previousOwner",
          "type": "address"
        },
        {
          "indexed": true,
          "internalType": "address",
          "name": "newOwner",
          "type": "address"
        }
      ],
      "name": "OwnershipTransferred",
      "type": "event"
    },
    {
      "anonymous": false,
      "inputs": [
        {
          "indexed": true,
          "internalType": "address",
          "name": "router",
          "type": "address"
        }
      ],
      "name": "RouterAdded",
      "type": "event"
    },
    {
      "anonymous": false,
      "inputs": [
        {
          "indexed": true,
          "internalType": "address",
          "name": "router",
          "type": "address"
        }
      ],
      "name": "RouterRemoved",
      "type": "event"
    },
    {
      "anonymous": false,
      "inputs": [
        {
          "indexed": true,
          "internalType": "address",
          "name": "router",
          "type": "address"
        },
        {
          "indexed": false,
          "internalType": "address[]",
          "name": "path",
          "type": "address[]"
        },
        {
          "indexed": false,
          "internalType": "uint256",
          "name": "amountIn",
          "type": "uint256"
        },
        {
          "indexed": true,
          "internalType": "address",
          "name": "to",
          "type": "address"
        },
        {
          "indexed": false,
          "internalType": "uint256",
          "name": "feePercent",
          "type": "uint256"
        }
      ],
      "name": "Swap",
      "type": "event"
    },
    {
      "inputs": [],
      "name": "MAX_SLIPPAGE_PERCENT",
      "outputs": [
        {
          "internalType": "uint256",
          "name": "",
          "type": "uint256"
        }
      ],
      "stateMutability": "view",
      "type": "function"
    },
    {
      "inputs": [
        {
          "internalType": "address",
          "name": "_router",
          "type": "address"
        }
      ],
      "name": "addWhiteListedRouter",
      "outputs": [],
      "stateMutability": "nonpayable",
      "type": "function"
    },
    {
      "inputs": [
        {
          "internalType": "address[]",
          "name": "_path",
          "type": "address[]"
        },
        {
          "internalType": "uint256",
          "name": "_amount",
          "type": "uint256"
        }
      ],
      "name": "getBestAmountsOutOnUniswapForks",
      "outputs": [
        {
          "internalType": "uint256",
          "name": "bestAmountOut",
          "type": "uint256"
        },
        {
          "internalType": "address",
          "name": "bestRouter",
          "type": "address"
        }
      ],
      "stateMutability": "view",
      "type": "function"
    },
    {
      "inputs": [],
      "name": "owner",
      "outputs": [
        {
          "internalType": "address",
          "name": "",
          "type": "address"
        }
      ],
      "stateMutability": "view",
      "type": "function"
    },
    {
      "inputs": [
        {
          "internalType": "address",
          "name": "_router",
          "type": "address"
        }
      ],
      "name": "removeWhiteListedRouter",
      "outputs": [],
      "stateMutability": "nonpayable",
      "type": "function"
    },
    {
      "inputs": [],
      "name": "renounceOwnership",
      "outputs": [],
      "stateMutability": "nonpayable",
      "type": "function"
    },
    {
      "inputs": [
        {
          "internalType": "address[]",
          "name": "_path",
          "type": "address[]"
        },
        {
          "internalType": "address",
          "name": "_routerAddress",
          "type": "address"
        },
        {
          "internalType": "uint256",
          "name": "_amountIn",
          "type": "uint256"
        },
        {
          "internalType": "uint256",
          "name": "_minAmountOutBeforeSlippage",
          "type": "uint256"
        },
        {
          "internalType": "uint256",
          "name": "_slippagePercent",
          "type": "uint256"
        },
        {
          "internalType": "uint256",
          "name": "deadline",
          "type": "uint256"
        }
      ],
      "name": "swapOnUniswapFork",
      "outputs": [],
      "stateMutability": "nonpayable",
      "type": "function"
    },
    {
      "inputs": [
        {
          "internalType": "address",
          "name": "newOwner",
          "type": "address"
        }
      ],
      "name": "transferOwnership",
      "outputs": [],
      "stateMutability": "nonpayable",
      "type": "function"
    },
    {
      "inputs": [
        {
          "internalType": "uint256",
          "name": "",
          "type": "uint256"
        }
      ],
      "name": "whiteListedRouters",
      "outputs": [
        {
          "internalType": "address",
          "name": "",
          "type": "address"
        }
      ],
      "stateMutability": "view",
      "type": "function"
    }
  ],
  "bytecode": "0x60806040523480156200001157600080fd5b50604051620028eb380380620028eb83398181016040528101906200003791906200042d565b620000576200004b620000c560201b60201c565b620000cd60201b60201c565b600180819055506000815111620000a5576040517f08c379a00000000000000000000000000000000000000000000000000000000081526004016200009c90620004df565b60405180910390fd5b8060029080519060200190620000bd92919062000191565b505062000501565b600033905090565b60008060009054906101000a900473ffffffffffffffffffffffffffffffffffffffff169050816000806101000a81548173ffffffffffffffffffffffffffffffffffffffff021916908373ffffffffffffffffffffffffffffffffffffffff1602179055508173ffffffffffffffffffffffffffffffffffffffff168173ffffffffffffffffffffffffffffffffffffffff167f8be0079c531659141344cd1fd0a4f28419497f9722a3daafe3b4186f6b6457e060405160405180910390a35050565b8280548282559060005260206000209081019282156200020d579160200282015b828111156200020c5782518260006101000a81548173ffffffffffffffffffffffffffffffffffffffff021916908373ffffffffffffffffffffffffffffffffffffffff16021790555091602001919060010190620001b2565b5b5090506200021c919062000220565b5090565b5b808211156200023b57600081600090555060010162000221565b5090565b6000604051905090565b600080fd5b600080fd5b600080fd5b6000601f19601f8301169050919050565b7f4e487b7100000000000000000000000000000000000000000000000000000000600052604160045260246000fd5b620002a38262000258565b810181811067ffffffffffffffff82111715620002c557620002c462000269565b5b80604052505050565b6000620002da6200023f565b9050620002e8828262000298565b919050565b600067ffffffffffffffff8211156200030b576200030a62000269565b5b602082029050602081019050919050565b600080fd5b600073ffffffffffffffffffffffffffffffffffffffff82169050919050565b60006200034e8262000321565b9050919050565b620003608162000341565b81146200036c57600080fd5b50565b600081519050620003808162000355565b92915050565b60006200039d6200039784620002ed565b620002ce565b90508083825260208201905060208402830185811115620003c357620003c26200031c565b5b835b81811015620003f05780620003db88826200036f565b845260208401935050602081019050620003c5565b5050509392505050565b600082601f83011262000412576200041162000253565b5b81516200042484826020860162000386565b91505092915050565b60006020828403121562000446576200044562000249565b5b600082015167ffffffffffffffff8111156200046757620004666200024e565b5b6200047584828501620003fa565b91505092915050565b600082825260208201905092915050565b7f4d7573742070726f76696465206174206c65617374206f6e6520726f75746572600082015250565b6000620004c76020836200047e565b9150620004d4826200048f565b602082019050919050565b60006020820190508181036000830152620004fa81620004b8565b9050919050565b6123da80620005116000396000f3fe608060405234801561001057600080fd5b50600436106100935760003560e01c8063715018a611610066578063715018a61461011f57806374e07828146101295780638da5cb5b14610159578063a97f682214610177578063f2fde38b1461019357610093565b80631a7ab09a1461009857806332e4b286146100c95780635b238485146100e75780636cc9056d14610103575b600080fd5b6100b260048036038101906100ad919061144a565b6101af565b6040516100c09291906114c4565b60405180910390f35b6100d1610381565b6040516100de91906114ed565b60405180910390f35b61010160048036038101906100fc9190611508565b610386565b005b61011d60048036038101906101189190611590565b6104a6565b005b61012761092e565b005b610143600480360381019061013e919061163f565b610942565b604051610150919061166c565b60405180910390f35b610161610981565b60405161016e919061166c565b60405180910390f35b610191600480360381019061018c9190611508565b6109aa565b005b6101ad60048036038101906101a89190611508565b610bf4565b005b6000806000831180156101c457506002845110155b610203576040517f08c379a00000000000000000000000000000000000000000000000000000000081526004016101fa906116e4565b60405180910390fd5b6000600185516102139190611733565b905060005b600280549050811015610378576002818154811061023957610238611767565b5b9060005260206000200160009054906101000a900473ffffffffffffffffffffffffffffffffffffffff1673ffffffffffffffffffffffffffffffffffffffff1663d06ca61f86886040518363ffffffff1660e01b815260040161029e929190611854565b600060405180830381865afa9250505080156102dd57506040513d6000823e3d601f19601f820116820180604052508101906102da919061195c565b60015b1561036557848184815181106102f6576102f5611767565b5b602002602001015111156103635780838151811061031757610316611767565b5b602002602001015194506002828154811061033557610334611767565b5b9060005260206000200160009054906101000a900473ffffffffffffffffffffffffffffffffffffffff1693505b505b8080610370906119a5565b915050610218565b50509250929050565b601481565b61038e610c77565b600073ffffffffffffffffffffffffffffffffffffffff168173ffffffffffffffffffffffffffffffffffffffff16036103fd576040517f08c379a00000000000000000000000000000000000000000000000000000000081526004016103f490611a39565b60405180910390fd5b6002819080600181540180825580915050600190039060005260206000200160009091909190916101000a81548173ffffffffffffffffffffffffffffffffffffffff021916908373ffffffffffffffffffffffffffffffffffffffff1602179055508073ffffffffffffffffffffffffffffffffffffffff167f81639ab8f3fbb025b1e08849071d6ba211e0153cc8c447680595775116b67a1a60405160405180910390a250565b6104ae610cf5565b846000805b60028054905081101561054d578273ffffffffffffffffffffffffffffffffffffffff16600282815481106104eb576104ea611767565b5b9060005260206000200160009054906101000a900473ffffffffffffffffffffffffffffffffffffffff1673ffffffffffffffffffffffffffffffffffffffff160361053a576001915061054d565b8080610545906119a5565b9150506104b3565b508061058e576040517f08c379a000000000000000000000000000000000000000000000000000000000815260040161058590611aa5565b60405180910390fd5b85898960008181106105a3576105a2611767565b5b90506020020160208101906105b89190611508565b73ffffffffffffffffffffffffffffffffffffffff166370a08231336040518263ffffffff1660e01b81526004016105f0919061166c565b602060405180830381865afa15801561060d573d6000803e3d6000fd5b505050506040513d601f19601f820116820180604052508101906106319190611ac5565b1015610672576040517f08c379a000000000000000000000000000000000000000000000000000000000815260040161066990611b3e565b60405180910390fd5b60148411156106b6576040517f08c379a00000000000000000000000000000000000000000000000000000000081526004016106ad90611baa565b60405180910390fd5b61070b3330888c8c60008181106106d0576106cf611767565b5b90506020020160208101906106e59190611508565b73ffffffffffffffffffffffffffffffffffffffff16610d44909392919063ffffffff16565b61075e87878b8b600081811061072457610723611767565b5b90506020020160208101906107399190611508565b73ffffffffffffffffffffffffffffffffffffffff16610dcd9092919063ffffffff16565b60006064858761076e9190611bca565b6107789190611c3b565b90508086116107bc576040517f08c379a00000000000000000000000000000000000000000000000000000000081526004016107b390611cb8565b60405180910390fd5b600081876107ca9190611733565b905060006001876107db9190611bca565b90506014811115610821576040517f08c379a000000000000000000000000000000000000000000000000000000000815260040161081890611d24565b60405180910390fd5b8973ffffffffffffffffffffffffffffffffffffffff166338ed17398a848f8f338c6040518763ffffffff1660e01b815260040161086496959493929190611dcf565b6000604051808303816000875af1158015610883573d6000803e3d6000fd5b505050506040513d6000823e3d601f19601f820116820180604052508101906108ac919061195c565b503373ffffffffffffffffffffffffffffffffffffffff168a73ffffffffffffffffffffffffffffffffffffffff167f7ffe9979ec7684944324985d5021e6f56c78d86b95a8e313dead9d252b66dd338e8e8d866040516109109493929190611e2b565b60405180910390a35050505050610925610edf565b50505050505050565b610936610c77565b6109406000610ee8565b565b6002818154811061095257600080fd5b906000526020600020016000915054906101000a900473ffffffffffffffffffffffffffffffffffffffff1681565b60008060009054906101000a900473ffffffffffffffffffffffffffffffffffffffff16905090565b6109b2610c77565b600073ffffffffffffffffffffffffffffffffffffffff168173ffffffffffffffffffffffffffffffffffffffff1603610a21576040517f08c379a0000000000000000000000000000000000000000000000000000000008152600401610a1890611a39565b60405180910390fd5b60005b600280549050811015610bf0578173ffffffffffffffffffffffffffffffffffffffff1660028281548110610a5c57610a5b611767565b5b9060005260206000200160009054906101000a900473ffffffffffffffffffffffffffffffffffffffff1673ffffffffffffffffffffffffffffffffffffffff1603610bdd5760026001600280549050610ab69190611733565b81548110610ac757610ac6611767565b5b9060005260206000200160009054906101000a900473ffffffffffffffffffffffffffffffffffffffff1660028281548110610b0657610b05611767565b5b9060005260206000200160006101000a81548173ffffffffffffffffffffffffffffffffffffffff021916908373ffffffffffffffffffffffffffffffffffffffff1602179055506002805480610b6057610b5f611e6b565b5b6001900381819060005260206000200160006101000a81549073ffffffffffffffffffffffffffffffffffffffff021916905590558173ffffffffffffffffffffffffffffffffffffffff167fbd6d178d515bf811c86f393b42367076da766033c8ebd94ea5a7e3eaf69d1c4660405160405180910390a2610bf0565b8080610be8906119a5565b915050610a24565b5050565b610bfc610c77565b600073ffffffffffffffffffffffffffffffffffffffff168173ffffffffffffffffffffffffffffffffffffffff1603610c6b576040517f08c379a0000000000000000000000000000000000000000000000000000000008152600401610c6290611f0c565b60405180910390fd5b610c7481610ee8565b50565b610c7f610fac565b73ffffffffffffffffffffffffffffffffffffffff16610c9d610981565b73ffffffffffffffffffffffffffffffffffffffff1614610cf3576040517f08c379a0000000000000000000000000000000000000000000000000000000008152600401610cea90611f78565b60405180910390fd5b565b600260015403610d3a576040517f08c379a0000000000000000000000000000000000000000000000000000000008152600401610d3190611fe4565b60405180910390fd5b6002600181905550565b610dc7846323b872dd60e01b858585604051602401610d6593929190612004565b604051602081830303815290604052907bffffffffffffffffffffffffffffffffffffffffffffffffffffffff19166020820180517bffffffffffffffffffffffffffffffffffffffffffffffffffffffff8381831617835250505050610fb4565b50505050565b60008373ffffffffffffffffffffffffffffffffffffffff1663dd62ed3e30856040518363ffffffff1660e01b8152600401610e0a92919061203b565b602060405180830381865afa158015610e27573d6000803e3d6000fd5b505050506040513d601f19601f82011682018060405250810190610e4b9190611ac5565b9050610ed98463095ea7b360e01b858585610e669190612064565b604051602401610e77929190612098565b604051602081830303815290604052907bffffffffffffffffffffffffffffffffffffffffffffffffffffffff19166020820180517bffffffffffffffffffffffffffffffffffffffffffffffffffffffff8381831617835250505050610fb4565b50505050565b60018081905550565b60008060009054906101000a900473ffffffffffffffffffffffffffffffffffffffff169050816000806101000a81548173ffffffffffffffffffffffffffffffffffffffff021916908373ffffffffffffffffffffffffffffffffffffffff1602179055508173ffffffffffffffffffffffffffffffffffffffff168173ffffffffffffffffffffffffffffffffffffffff167f8be0079c531659141344cd1fd0a4f28419497f9722a3daafe3b4186f6b6457e060405160405180910390a35050565b600033905090565b6000611016826040518060400160405280602081526020017f5361666545524332303a206c6f772d6c6576656c2063616c6c206661696c65648152508573ffffffffffffffffffffffffffffffffffffffff1661107c9092919063ffffffff16565b905060008151148061103857508080602001905181019061103791906120f9565b5b611077576040517f08c379a000000000000000000000000000000000000000000000000000000000815260040161106e90612198565b60405180910390fd5b505050565b606061108b8484600085611094565b90509392505050565b6060824710156110d9576040517f08c379a00000000000000000000000000000000000000000000000000000000081526004016110d09061222a565b60405180910390fd5b6000808673ffffffffffffffffffffffffffffffffffffffff16858760405161110291906122bb565b60006040518083038185875af1925050503d806000811461113f576040519150601f19603f3d011682016040523d82523d6000602084013e611144565b606091505b509150915061115587838387611161565b92505050949350505050565b606083156111c35760008351036111bb5761117b856111d6565b6111ba576040517f08c379a00000000000000000000000000000000000000000000000000000000081526004016111b19061231e565b60405180910390fd5b5b8290506111ce565b6111cd83836111f9565b5b949350505050565b6000808273ffffffffffffffffffffffffffffffffffffffff163b119050919050565b60008251111561120c5781518083602001fd5b806040517f08c379a00000000000000000000000000000000000000000000000000000000081526004016112409190612382565b60405180910390fd5b6000604051905090565b600080fd5b600080fd5b600080fd5b6000601f19601f8301169050919050565b7f4e487b7100000000000000000000000000000000000000000000000000000000600052604160045260246000fd5b6112ab82611262565b810181811067ffffffffffffffff821117156112ca576112c9611273565b5b80604052505050565b60006112dd611249565b90506112e982826112a2565b919050565b600067ffffffffffffffff82111561130957611308611273565b5b602082029050602081019050919050565b600080fd5b600073ffffffffffffffffffffffffffffffffffffffff82169050919050565b600061134a8261131f565b9050919050565b61135a8161133f565b811461136557600080fd5b50565b60008135905061137781611351565b92915050565b600061139061138b846112ee565b6112d3565b905080838252602082019050602084028301858111156113b3576113b261131a565b5b835b818110156113dc57806113c88882611368565b8452602084019350506020810190506113b5565b5050509392505050565b600082601f8301126113fb576113fa61125d565b5b813561140b84826020860161137d565b91505092915050565b6000819050919050565b61142781611414565b811461143257600080fd5b50565b6000813590506114448161141e565b92915050565b6000806040838503121561146157611460611253565b5b600083013567ffffffffffffffff81111561147f5761147e611258565b5b61148b858286016113e6565b925050602061149c85828601611435565b9150509250929050565b6114af81611414565b82525050565b6114be8161133f565b82525050565b60006040820190506114d960008301856114a6565b6114e660208301846114b5565b9392505050565b600060208201905061150260008301846114a6565b92915050565b60006020828403121561151e5761151d611253565b5b600061152c84828501611368565b91505092915050565b600080fd5b60008083601f8401126115505761154f61125d565b5b8235905067ffffffffffffffff81111561156d5761156c611535565b5b6020830191508360208202830111156115895761158861131a565b5b9250929050565b600080600080600080600060c0888a0312156115af576115ae611253565b5b600088013567ffffffffffffffff8111156115cd576115cc611258565b5b6115d98a828b0161153a565b975097505060206115ec8a828b01611368565b95505060406115fd8a828b01611435565b945050606061160e8a828b01611435565b935050608061161f8a828b01611435565b92505060a06116308a828b01611435565b91505092959891949750929550565b60006020828403121561165557611654611253565b5b600061166384828501611435565b91505092915050565b600060208201905061168160008301846114b5565b92915050565b600082825260208201905092915050565b7f496e76616c696420706172616d65746572730000000000000000000000000000600082015250565b60006116ce601283611687565b91506116d982611698565b602082019050919050565b600060208201905081810360008301526116fd816116c1565b9050919050565b7f4e487b7100000000000000000000000000000000000000000000000000000000600052601160045260246000fd5b600061173e82611414565b915061174983611414565b925082820390508181111561176157611760611704565b5b92915050565b7f4e487b7100000000000000000000000000000000000000000000000000000000600052603260045260246000fd5b600081519050919050565b600082825260208201905092915050565b6000819050602082019050919050565b6117cb8161133f565b82525050565b60006117dd83836117c2565b60208301905092915050565b6000602082019050919050565b600061180182611796565b61180b81856117a1565b9350611816836117b2565b8060005b8381101561184757815161182e88826117d1565b9750611839836117e9565b92505060018101905061181a565b5085935050505092915050565b600060408201905061186960008301856114a6565b818103602083015261187b81846117f6565b90509392505050565b600067ffffffffffffffff82111561189f5761189e611273565b5b602082029050602081019050919050565b6000815190506118bf8161141e565b92915050565b60006118d86118d384611884565b6112d3565b905080838252602082019050602084028301858111156118fb576118fa61131a565b5b835b81811015611924578061191088826118b0565b8452602084019350506020810190506118fd565b5050509392505050565b600082601f8301126119435761194261125d565b5b81516119538482602086016118c5565b91505092915050565b60006020828403121561197257611971611253565b5b600082015167ffffffffffffffff8111156119905761198f611258565b5b61199c8482850161192e565b91505092915050565b60006119b082611414565b91507fffffffffffffffffffffffffffffffffffffffffffffffffffffffffffffffff82036119e2576119e1611704565b5b600182019050919050565b7f496e76616c696420726f75746572206164647265737300000000000000000000600082015250565b6000611a23601683611687565b9150611a2e826119ed565b602082019050919050565b60006020820190508181036000830152611a5281611a16565b9050919050565b7f526f75746572206d7573742062652077686974656c6973746564000000000000600082015250565b6000611a8f601a83611687565b9150611a9a82611a59565b602082019050919050565b60006020820190508181036000830152611abe81611a82565b9050919050565b600060208284031215611adb57611ada611253565b5b6000611ae9848285016118b0565b91505092915050565b7f4e6f7420656e6f75676820746f6b656e7320617661696c61626c650000000000600082015250565b6000611b28601b83611687565b9150611b3382611af2565b602082019050919050565b60006020820190508181036000830152611b5781611b1b565b9050919050565b7f536c69707061676520746f6f2068696768000000000000000000000000000000600082015250565b6000611b94601183611687565b9150611b9f82611b5e565b602082019050919050565b60006020820190508181036000830152611bc381611b87565b9050919050565b6000611bd582611414565b9150611be083611414565b9250828202611bee81611414565b91508282048414831517611c0557611c04611704565b5b5092915050565b7f4e487b7100000000000000000000000000000000000000000000000000000000600052601260045260246000fd5b6000611c4682611414565b9150611c5183611414565b925082611c6157611c60611c0c565b5b828204905092915050565b7f496e76616c696420736c69707061676500000000000000000000000000000000600082015250565b6000611ca2601083611687565b9150611cad82611c6c565b602082019050919050565b60006020820190508181036000830152611cd181611c95565b9050919050565b7f4665652065786365656473206d6178696d756d20616c6c6f7765640000000000600082015250565b6000611d0e601b83611687565b9150611d1982611cd8565b602082019050919050565b60006020820190508181036000830152611d3d81611d01565b9050919050565b6000819050919050565b6000611d5d6020840184611368565b905092915050565b6000602082019050919050565b6000611d7e83856117a1565b9350611d8982611d44565b8060005b85811015611dc257611d9f8284611d4e565b611da988826117d1565b9750611db483611d65565b925050600181019050611d8d565b5085925050509392505050565b600060a082019050611de460008301896114a6565b611df160208301886114a6565b8181036040830152611e04818688611d72565b9050611e1360608301856114b5565b611e2060808301846114a6565b979650505050505050565b60006060820190508181036000830152611e46818688611d72565b9050611e5560208301856114a6565b611e6260408301846114a6565b95945050505050565b7f4e487b7100000000000000000000000000000000000000000000000000000000600052603160045260246000fd5b7f4f776e61626c653a206e6577206f776e657220697320746865207a65726f206160008201527f6464726573730000000000000000000000000000000000000000000000000000602082015250565b6000611ef6602683611687565b9150611f0182611e9a565b604082019050919050565b60006020820190508181036000830152611f2581611ee9565b9050919050565b7f4f776e61626c653a2063616c6c6572206973206e6f7420746865206f776e6572600082015250565b6000611f62602083611687565b9150611f6d82611f2c565b602082019050919050565b60006020820190508181036000830152611f9181611f55565b9050919050565b7f5265656e7472616e637947756172643a207265656e7472616e742063616c6c00600082015250565b6000611fce601f83611687565b9150611fd982611f98565b602082019050919050565b60006020820190508181036000830152611ffd81611fc1565b9050919050565b600060608201905061201960008301866114b5565b61202660208301856114b5565b61203360408301846114a6565b949350505050565b600060408201905061205060008301856114b5565b61205d60208301846114b5565b9392505050565b600061206f82611414565b915061207a83611414565b925082820190508082111561209257612091611704565b5b92915050565b60006040820190506120ad60008301856114b5565b6120ba60208301846114a6565b9392505050565b60008115159050919050565b6120d6816120c1565b81146120e157600080fd5b50565b6000815190506120f3816120cd565b92915050565b60006020828403121561210f5761210e611253565b5b600061211d848285016120e4565b91505092915050565b7f5361666545524332303a204552433230206f7065726174696f6e20646964206e60008201527f6f74207375636365656400000000000000000000000000000000000000000000602082015250565b6000612182602a83611687565b915061218d82612126565b604082019050919050565b600060208201905081810360008301526121b181612175565b9050919050565b7f416464726573733a20696e73756666696369656e742062616c616e636520666f60008201527f722063616c6c0000000000000000000000000000000000000000000000000000602082015250565b6000612214602683611687565b915061221f826121b8565b604082019050919050565b6000602082019050818103600083015261224381612207565b9050919050565b600081519050919050565b600081905092915050565b60005b8381101561227e578082015181840152602081019050612263565b60008484015250505050565b60006122958261224a565b61229f8185612255565b93506122af818560208601612260565b80840191505092915050565b60006122c7828461228a565b915081905092915050565b7f416464726573733a2063616c6c20746f206e6f6e2d636f6e7472616374000000600082015250565b6000612308601d83611687565b9150612313826122d2565b602082019050919050565b60006020820190508181036000830152612337816122fb565b9050919050565b600081519050919050565b60006123548261233e565b61235e8185611687565b935061236e818560208601612260565b61237781611262565b840191505092915050565b6000602082019050818103600083015261239c8184612349565b90509291505056fea2646970667358221220fdfecebd9f21701cdc00246384f35ddd0c6390b92e38cc66a867668b97dd26ea64736f6c63430008120033",
  "linkReferences": {},
  "deployedLinkReferences": {}
}